:020000040800F2
:1000000020070020290200080115000881140008BB
:10001000FD140008D5030008CD15000800000000FD
:1000200000000000000000000000000009150008AA
:10003000E503000800000000051500080D15000884
:10004000430200084302000843020008430200087C
:10005000430200084302000843020008430200086C
:10006000430200084302000843020008430200085C
:10007000430200084302000843020008430200084C
:10008000430200084302000843020008430200083C
:10009000D903000843020008430200084302000895
:1000A000430200084302000843020008430200081C
:1000B000430200084302000843020008430200080C
:1000C00043020008430200084302000843020008FC
:1000D00043020008430200084302000843020008EC
:1000E00043020008430200084302000843020008DC
:1000F00043020008430200084302000843020008CC
:1001000043020008430200084302000843020008BB
:1001100043020008430200084302000843020008AB
:10012000430200084302000843020008430200089B
:10013000430200084302000843020008430200088B
:10014000430200084302000843020008430200087B
:10015000430200084302000843020008430200086B
:10016000430200084302000843020008430200085B
:100170004302000843020008430200080000000098
:10018000430200084302000800F002F800F03CF8C7
:100190000AA090E8000C82448344AAF10107DA45E2
:1001A00001D100F031F8AFF2090EBAE80F0013F0F8
:1001B000010F18BFFB1A43F0010318472016000077
:1001C00040160000103A24BF78C878C1FAD8520708
:1001D00024BF30C830C144BF04680C6070470000C1
:1001E0000023002400250026103A28BF78C1FBD840
:1001F000520728BF30C148BF0B6070471FB501F0E0
:10020000D7FA1FBD10B510BD00F0A9F81146FFF7D1
:10021000F5FF01F0DDF900F0C7F803B4FFF7F2FFD6
:1002200003BC00F0CFF800000948804709480047A8
:10023000FEE7FEE7FEE7FEE7FEE7FEE7FEE7FEE796
:10024000FEE7FEE704480549054A064B70470000F3
:10025000B9150008890100082001002020070020AE
:10026000200300202003002053EA020C00F06980E4
:100270002DE9F04B4FF00006002B1FBFB3FA83F5BA
:1002800003FA05F424FA05F65E4012BF1643B2FAEB
:1002900082F502FA05F4C5F120051EBF22FA05FC1D
:1002A00044EA0C04203556EA044C4FEA144418BFC3
:1002B000641C4FF000084FF00009904271EB030CF2
:1002C00039D3002919BFB1FA81F701FA07F6B0FA5C
:1002D00080F700FA07F6C7F120071EBF20FA07FCD7
:1002E00046EA0C062037B6FBF4FCA7EB0507103FE7
:1002F00007F01F0BCBF120062CFA06F60CFA0BFBCD
:1003000044BFB3460026202FA4BF5E464FF0000B2B
:100310005BEA060C08BF4FF0010B19EB0B0948EB29
:100320000608ABFB027C06FB02CC0BFB03CCC01B1C
:1003300071EB0C01C1E70B46024641464846BDE859
:10034000F08B13B5084318BF4FF0FF300146AFF3F1
:100350000080BDE81C407047704770477047754685
:1003600000F02CF8AE4605006946534620F0070021
:10037000854618B020B5FFF765FFBDE820404FF077
:1003800000064FF000074FF000084FF0000BAC469E
:10039000ACE8C009ACE8C009ACE8C009ACE8C009E9
:1003A00021F007018D46704710B50446AFF3008079
:1003B0002046BDE81040FFF730BF000000487047FE
:1003C0001000002001491820ABBEFEE72600020005
:1003D00070470000FEE7000040F2D000C2F20000CB
:1003E00000F07CB97047000072B600BFFEE7000065
:1003F00090F82020013A012A08D8006800F1140280
:100400000020136819431160704700BF00F12402F7
:1004100001204FF4802113681943116070470000D8
:1004200010B590F820E0D0F800C0AEF1010EBEF19A
:10043000010FDCF808E00FD81EF0E05F16D0CEF315
:10044000016E012000FA0EF018608B68C3B1486895
:1004500043EAC00316E000BF00F1240101204FF47D
:1004600080220B681A430A6010BD00BF00F124010E
:1004700001204FF400120B681A430A6010BD00BF40
:1004800008684305D1E9030403430CEB0E10C0F8E0
:100490008031C0F88441097D012905D100F5C27180
:1004A0000B6843F480730B605168C0F88C111268BC
:1004B00000F5C071C0F88821002001220B681A43A2
:1004C0000A6010BDB0B590F82020013A012A2FD85B
:1004D00046F20060C4F20000026842F001020260CD
:1004E000026822F47C520260D1F814E0CC694A6AB6
:1004F0000368012C43EA022202600EF01F024FF053
:10050000010303FA02F2C3696FEA020C23EA020351
:10051000C36113D02CBBC36803EA0C03C360CB6870
:100520008C8844EA034300EBCE0423640B4611E0BD
:10053000416A41F4802141620120B0BDC368134388
:10054000C3600B688C8844EA034300EBCE04236449
:1005500001F10C038C681B8843EA044300EBCE04D2
:10056000636443688D6943EA0204D1F810E0096AC4
:10057000002D08BF03EA0C0444604369BEF1000F7C
:1005800043EA020408BF03EA0C040129446102D1D2
:10059000C1691143C161016821F0010101600020BE
:1005A000B0BD00007047000010B590F82040013C3D
:1005B000012C7BD8D0F800C0002900F08180DCF845
:1005C0001040A40700F081800CEB011CDCF8B04166
:1005D0000CF5D87E14F004049460DCF8B04119BF27
:1005E000E4085460640D1460DEF800400CF5DA7E17
:1005F00004F00204D460DCF8B44124075ABFDEF8EA
:10060000004004F00F0408241461DEF800400029C3
:10061000C4F307249461DEF800404FEA14445461A7
:10062000DCF8B8211A70026802EB0112D2F8B82186
:100630004FEA12225A70026802EB0112D2F8B82176
:100640004FEA12429A70026802EB0112D2F8B82106
:100650004FEA1262DA70026802EB0112D2F8BC2192
:100660001A71026802EB0112D2F8BC214FEA122281
:100670005A71026802EB0112D2F8BC214FEA124211
:100680009A71026802EB0112D2F8BC214FEA1262A1
:10069000DA71006814BF00F1100100F10C010020B4
:1006A00020220B681A430A6010BD00BF00F124012C
:1006B00001204FF480220B681A430A6010BD00BF6E
:1006C000DCF80C40A4077FF47FAF00F12401012087
:1006D0004FF400120B681A430A6010BD2DE9F04F69
:1006E00081B0044600684669D0F804908768D0F865
:1006F0000CB0D0F810A0D0F81880F10704D1002574
:1007000030071DD424E000BFF90710D00121BA073B
:10071000816009D4780700F1AF80380700F1B68016
:10072000204600F039FA02E0204600F037FA0025B2
:10073000F80500F18780F80300F1B180300707D594
:100740001BF0100004D0206845F400751021C16032
:10075000700708D51BF0080005D020680821C1608B
:10076000204600F0A3F9B00706D52068C0688007CE
:1007700002D0204600F09CF9700607D51AF0100050
:1007800004D0206845F4806510210161B00608D5C9
:100790001AF0080005D0206808210161204600F009
:1007A000C7F9F00606D520680069800702D0204608
:1007B00000F0C0F9B00308D519F0100005D020688A
:1007C00010214160204600F0B7F9F00308D519F078
:1007D000080005D0206808214160204600F0E8F9B3
:1007E000300440F19B805FEA497040F1948006F448
:1007F000807008EA102028435FEA8871014648BFEC
:1008000041F00201B20558BF01465FEA48700D464B
:1008100048BF45F00405700558BF0D46300540F14E
:100820007A8018F0700000F07680103800090528F2
:100830006CD8DFE800F003595D61656945F0080593
:1008400064E000BF20684FF48071BA0581600BD46A
:10085000780515D438051DD4204600F0A1F9F80319
:100860007FF56CAF1BE000BF204600F09BF9F8035A
:100870007FF564AF13E000BF4FF4006558E700BF99
:1008800005F50055F8037FF559AF08E04FF48055A2
:100890004EE700BF05F58045F8037FF54FAF2068B0
:1008A0004FF48031BA0381600AD4780310D438033E
:1008B00014D4204600F078F930073FF541AF47E700
:1008C000204600F073F930073FF53AAF40E700BF2C
:1008D00005F5004530073FF533AF39E705F58035BD
:1008E00030073FF52DAF33E745F010050EE000BFB0
:1008F00045F020050AE000BF45F0400506E000BFD6
:1009000045F0800502E000BF45F4807520688169EC
:1009100021F07001816120680421416055B1606A55
:1009200040EA05012046616201B0BDE8F04FFFF7E3
:1009300039BE00BF01B0BDE8F08F0000B0B5C8B14E
:10094000044690F8200010B9204600F071F82068A5
:10095000016841F00101016000F01EFA054600BF88
:1009600020684168C90707D100F016FA401B0B2820
:10097000F6D312E00120B0BD016821F00201016050
:1009800000F00AFA054600BF2068416889070DD5C6
:1009900000F002FA401B0B28F6D3606A052140F4F0
:1009A00000306062012084F82010B0BD217E026812
:1009B000012922F0800208BF80320260617E026855
:1009C000012922F0400208BF40320260A17E026885
:1009D000012922F0200208BF20320260E17E026875
:1009E000012922F0100218BF10320260217F026834
:1009F000012922F0080208BF08320260617F026804
:100A0000012922F0040208BF04320260D4E901C2C5
:100A1000D4E9033561691A432A431143ACF1010259
:100A20001143C16100200121606284F82010B0BD33
:100A300080B586B0016846F20040C4F200008142F1
:100A400002D006B080BD00BF002143F63002019104
:100A5000C4F20202136900F5CE3043F00073136153
:100A6000136903F000730193019B0191136843F034
:100A700001031360126802F001020192019A4FF41F
:100A8000C05201920222CDE90221032104910921E1
:100A9000059101A900F0A2F814200021002200F025
:100AA000FBF9142000F0E8F906B080BD70470000A3
:100AB00010B5016846F20042C4F20002914201D032
:100AC00010BD00BF40F27004C2F2000404F1440201
:100AD00004F110030021FFF767FD606C40F2032171
:100AE000884218BF10BD618AA28A09BA090C208AFF
:100AF000218311BA090C00BA6183B4F92020A17DC9
:100B0000000C531CA17701B20CD08A1A12F5805F39
:100B100002DAA26A013204E0B2F5805F02DDA26A65
:100B2000013AA262A26A208401EB4230606210BDE9
:100B3000704700007047000070470000B0B50446E1
:100B400090F8200001281DD1022084F820002068A0
:100B5000016821F00101016000F01EF9054600BFA7
:100B600020684068C00713D000F016F9401B0B281E
:100B7000F6D3606A40F400306062052084F82000FB
:100B80000120B0BD606A40F4002060620120B0BD69
:100B900000206062B0BD0000704700007047000098
:100BA0007047000070470000704700007047000069
:100BB00070470000B0B5044600F0EEF8054640F27C
:100BC0000000C2F200000078611C18BF044400BF9E
:100BD00000F0E2F8401BA042FAD3B0BD2DE9F04F7F
:100BE00082B000F13E4241F6004502F1FF77C4F2C7
:100BF000020508224FEAB726A84208BF0722072E9F
:100C000038BF4FEAB7224FF0010A002400274FF007
:100C10000008009208E000BF023708F10108202F09
:100C200004F1040400F0B4800E680AFA08F916EA28
:100C3000090FF1D0D1F804A00AF0030BABF10106C3
:100C4000012E17D80322866802FA07FECA6826EA30
:100C50000E06BA40324382604268CAF3001522EAA7
:100C6000090205FA08F54FEA480C6FEA0E062A4316
:100C700042600BE00322BA40D643BBF1030FBC46EF
:100C800004D1BC464FF0030B22E000BFC2688D6860
:100C9000324005FA0CF52A43BBF1020FC26017D1AE
:100CA0006FF0030202EA5802024404F01C030F250D
:100CB000D2F820E005FA03FA0D692EEA0A0E05FAC9
:100CC00003F343EA0E031362D1F804A00AF0030B06
:100CD00002680BFA0CF332401A431AF4403F4FF00B
:100CE000010A026098D0002243F644030192C4F244
:100CF00002031A6843F6004E42F480421A601A68F2
:100D0000C4F2010E02F480420192019A28F003021B
:100D10004FF6084C7244CFF6FF7C52F80C3004F0CA
:100D20000C060F25B540AB43009D05FA06F633438C
:100D300042F80C30DEF808204B6842EA090643F618
:100D40000C4CDD0258BF22EA0906CEF80860C4F256
:100D5000010CDCF800209D0242EA090658BF22EA95
:100D60000906CCF80060DEF804209D0342EA09067B
:100D700058BF22EA0906CEF80460DEF80020DB0343
:100D800042EA090658BF22EA0906CEF8006043E7A6
:100D900002B0BDE8F08F000040F21C10C2F200006B
:100DA0000068704740F2000040F21C11C2F20000DF
:100DB000C2F2000100780A68104408607047000021
:100DC00080B543F60040C4F20200016841F40071AE
:100DD0000160016841F480610160016841F4807143
:100DE0000160032000F084F80F2000F005F800F007
:100DF00027F8002080BD000070B540F20006C2F266
:100E0000000640F208013278C2F200014FF47A7312
:100E10000968B3FBF2F20446B1FBF2F1084600F0B8
:100E200019FB0F2C4FF0010508D838B94FF0FF30EF
:100E300021460022002500F02FF87460284670BD7E
:100E400082B0002043F640010190C4F202014A68DA
:100E500042F480424A604A6802F480420192019A58
:100E60000090086840F080500860086800F08050EA
:100E70000090009802B07047002848BF704700F00B
:100E80001F01012202FA01F14EF200124009CEF2D6
:100E9000000242F82010704710B54EF60C5CCEF2FE
:100EA000000CDCF80030C3F3022E8EF00704042C93
:100EB00028BF0424BEF103034FF0FF3E0EFA04F4F2
:100EC00038BF0023A14399400EFA03F39A4311431C
:100ED00000F00F02043A624409010C3200F1604351
:100EE000B0F1FF3FC8BF03F56442117010BD0000B0
:100EF0004EF60C51CEF200010A684FF6FF031A407D
:100F000060F30A2242F0806040F0FD700860704794
:100F10002DE9F041002800F08B8043F60808C4F268
:100F200002080446D8F8F8030D4600F0070088428E
:100F300007D288F8F853D8F8F80300F00700A84261
:100F400076D12068810717D5410705D5D8F800105C
:100F500041F4E051C8F80010010705D5D8F8001099
:100F600041F46041C8F80010D8F80010A26821F0E0
:100F7000F0011143C8F80010C0073FD1D8F8F803BA
:100F800000F00700A84207D988F8F853D8F8F8030A
:100F900000F00700A8424BD12068410707D5D8F8D8
:100FA0000010E26821F4E0511143C8F80010000776
:100FB00008D5D8F80000216920F4604040EAC1005B
:100FC000C8F8000000F054F8D8F8001041F2CA72D6
:100FD000C1F30311C0F60002515C40F2080220FA8E
:100FE00001F140F20400C2F200000068C2F2000207
:100FF0001160FFF701FF0020BDE8F0816068811EED
:10100000022907D258F8081C89015CBF0120BDE8FD
:10101000F08111E0012807D158F8081C89035CBF52
:101020000120BDE8F08107E058F8081C890703D4C7
:101030000120BDE8F08100BFD8F8001021F00301C5
:101040000843C8F80000FFF7A7FE064641F28837BC
:10105000D8F80000616800F00C00B0EB810F8DD073
:10106000FFF79AFE801BB842F2D90320BDE8F08159
:1010700010B543F60404C4F20204606800F00C01E9
:1010800042F200400829C0F2F40007D0042918BF3A
:1010900010BD41F20020C0F27A0010BD216801F0BD
:1010A0003F02216823684902C3F3881106D4A1FBDB
:1010B00000010023FFF7D8F807E000BF41F200204D
:1010C000C0F27A004843B0FBF2F021680222C1F37B
:1010D000014102EB4101B0FBF1F010BD2DE9F041FF
:1010E00082B000286AD00446007843F60006C007A4
:1010F000C4F202060BD0B06800F00C00042840F0E7
:10110000A1803068800302D56068002856D020781E
:1011100080071AD5B06810F00C0F09D0B06800F045
:101120000C00082840F0A8807068400200F1A480FC
:101130003068800702D5E06801283FD13068216916
:1011400020F0F80040EAC10030602078000739D470
:10115000207840074ED4A5695DB3B06800F00C005C
:10116000082840F0BD80012D28D07068E16900F4A6
:1011700080028A4222D1216A00F03F028A421DD1B8
:1011800047F6C071626A0140B1EB821F16D1A26AB4
:101190000023CFF6FF7303EBC23200F440316FF34C
:1011A0000F0291420AD1E16A00F07060B0EB016F6A
:1011B00004D1002002B0BDE8F08100BF012002B0E0
:1011C000BDE8F0816069002840F20000C4F24720C9
:1011D00076D00121C0F8801EFFF7DEFD054600BF76
:1011E000706F8007B4D4FFF7D7FD401B0228F7D9F2
:1011F000DDE000BF306C10F080580AD10020019073
:10120000306C40F080503064306C00F080500190C1
:10121000019847F20007C4F200073868C00541D4BE
:10122000386840F480703860FFF7B6FD054600BFAF
:101230003868C00536D4FFF7AFFD401B0228F7D948
:10124000B5E000BFB06800F00C00082803D170685A
:1012500040023FF556AF6068B0F5803F07D0B0F56B
:10126000A02F40F08D80306840F4802030603068DE
:1012700040F4803030608DE0E068002852D00020DB
:10128000C4F2472001210160FFF786FD054600BF3B
:10129000306880073FF552AFFFF77EFD401B022804
:1012A000F6D984E0A068012805D005284ED1306F1A
:1012B00040F004003067306F40F0010030674FE0CD
:1012C0000021C0F8801EFFF767FD0546706F80079C
:1012D0007FF53EAFFFF760FD401B0228F6D966E0C0
:1012E0000027C4F2472700203866FFF755FD022D7E
:1012F00005460BD1306880015ED5FFF74DFD401BE0
:1013000002284FF00300F5D954E700BF3068800190
:101310007FF54FAFFFF740FD401B02284FF0030061
:10132000F4D947E70020C4F2472000210160FFF70D
:1013300033FD0546306880077FF507AFFFF72CFDCA
:10134000401B02284FF00300F4D933E7316F002827
:1013500021F001013167316F21F0040131674DD077
:10136000FFF71AFD054641F2883700BF306F80074E
:1013700056D4FFF711FD401BB842F7D917E000BF64
:101380003168002821F480313160316821F48021F6
:1013900031604FD0FFF700FD054600BF3068800385
:1013A0003FF5B5AEFFF7F8FC401B6428F6D90320E3
:1013B00002B0BDE8F08100BF04F11C052FCD084349
:1013C0000021CFF6FF7140EA821001EBC3316FF3C9
:1013D0000F0140EA05600843706001203866FFF79E
:1013E000DBFC0446306880013FF5E3AEFFF7D4FC38
:1013F000001B02284FF00300F4D9DBE6FFF7CCFC1A
:10140000054641F2883700BF306F800708D5FFF7E7
:10141000C3FC401BB8424FF00300F5D9CAE600BF39
:10142000B8F1000F7FF497AE306C20F0805030643C
:1014300091E600BFFFF7B0FC054600BF30688003AF
:101440007FF565AEFFF7A8FC401B64284FF0030052
:10145000F4D9AFE6411E0020B0EB116F1CBF012094
:1014600070474EF21002CEF2000251604EF6235148
:10147000CEF20001F0230B700721906011607047DD
:10148000FEE7000080B540F2D00046F20041C2F213
:101490000000C4F200010322002380E80E0000F1E6
:1014A0000C014FF4002C4FF4401E81E8085083617A
:1014B0008383FFF743FA002808BF80BDBDE8804062
:1014C000FEF792BF82B0002043F630010190C4F2D3
:1014D00002010A6842F080020A600A6802F0800293
:1014E0000192019A0090086840F0010008600868C5
:1014F00000F001000090009802B07047FEE7000085
:10150000FEE700007047000070470000FFF74ABC8C
:10151000B0B592B0002443F64000CDE90A44CDE9CD
:1015200008440594CDE90344CDE901440094C4F294
:1015300002000168022541F080510160006800F05E
:1015400080500090009847F200000094C4F2000020
:10155000016841F4804101600068A82100F48040E6
:1015600000900098012006904FF4803007904FF4CF
:1015700080000D9004200E90119006A80C95CDE9E6
:101580000F15FFF7ABFD18B172B600BFFEE700BF45
:101590000F20CDE901054FF4A05004904FF4805086
:1015A000059001A805210394FFF7B2FC10B172B6B3
:1015B000FEE700BF12B0B0BD4EF68850CEF200007C
:1015C000016841F47001016070470000FEE700000F
:1015D0008AB04FF6FF74FFF7F3FBFFF799FFFFF7B1
:1015E00071FFFFF74FFF40F2F8060020C2F200063D
:1015F000C4F260000027C6E900070020C4F2FA40E8
:1016000040F2D0084FF08141306240F27005012075
:10161000C2F200084FF08D42C6E90217C2F200057F
:101620000890CDE9067069464046C6E90477C6E9E8
:101630000672C5E909772C84CDE90077CDE90277F8
:10164000CDE90477FEF73EFF4046FFF777FA4046C4
:101650000221FEF7CDFE288CA04205D10120FFF724
:10166000A9FA288CA042F9D0686A9FED508A4CF202
:10167000000B40F2D008B3EE049A4FF400794FF01B
:10168000080ACFF6FF7B2C1DC2F20008B0EE481A04
:101690000146286037615DE0B0EE421A86ED052A0A
:1016A00096ED003A96ED014A02EE100A96ED025AC6
:1016B000B8EEC22A21EE041A23EE000A96ED076A5C
:1016C00030EE010A25EE021A30EE410AB4EE460A67
:1016D000B0EE401AB1EE462AF1EE10FAC8BFB0EEF5
:1016E000461AB4EE421AF1EE10FAB8BFB0EE421A42
:1016F000B4EE460AB8BFB0EE410AF1EE10FAC8BF28
:10170000B0EE410A86ED060ABDEEC10A10EE100ADF
:10171000294641F82C9FC5E90D77C5F83CA0B0F5E6
:10172000804FA8BF4FF4804010F5804FD8BF584677
:10173000030A2A4642F8087F2B7368734046234603
:10174000EF81FEF76DFE0120FFF734FA2968686A21
:1017500096ED051A00EE101A02EE100AB8EEC00A55
:10176000B8EEC22A30EE420AB0EEC02AB4EE492AE0
:10177000B5F91800F1EE10FAB8BFB0EE480A96EDD0
:10178000082A31EE001AB4EE421AF1EE10FA86ED94
:10179000030A86ED051A3FF77FAFB1EE422AB4EE99
:1017A000421AF1EE10FAFFF677AF79E70000000079
:1017B000F1EE100A4FF6FF71C0F2C03120EA0100CD
:1017C00040F04070E1EE100A704700000000000099
:1017D00000000102030406070809000000180008C1
:1017E0000000002010000000C401000810180008CC
:1017F0001000002010070000E001000800000000B9
:1018000001000000100000000024F40000000000AF
:040000050800018965
:00000001FF
